:02000004C0D06A
:10000000B0B58CB062B618480024B022214602F088
:1000100017F801F067FF01AD284606F09BFF288521
:100020001249084210D001AD2C8502F0CBF8A8424D
:1000300003D102F0C9F801F058FF01A8008D002893
:100040000FD100200CB0B0BD01A801F04EFF02F0AE
:10005000E9F9002006F01EFA012006F01BFA01F073
:10006000E7FE02F0AAF8C046D81C0020FFFF0000FF
:10007000F0B503AFFFB0EEB06E461C46B16201466C
:10008000B261501E032800D383E0434DAD193022E6
:1000900072612846F56201F0DCFF2846B16A01F082
:1000A00019FC3E4DAD19284601F0B2FC2846F16A14
:1000B00001F0C8FC2846F16A01F0DCFC284601F09A
:1000C000A7FC2846F16A01F0BDFCF01D293001F0C3
:1000D0009FFC7169B36959436846B0606D467160B1
:1000E000681A30618546303D00200246F0600146C6
:1000F0007462F562F2613162F168B1622748801979
:1001000021462A4601F0C7FC1A25244CA419204692
:1001100001F07EFC2046F16A01F094FC2046F16A71
:1001200001F0A8FC6D1EF0D1F01D2930F56A2946BA
:1001300001F088FC19488019746A214601F06EFCB0
:10014000B16A491CC8B21B28D7D37069F169414311
:1001500030694118F01D2930B06201F08BFCB06AA3
:1001600001F056FC316A491CCAB2B0698242C1D35F
:10017000F51D293528463169726801F06FFC284663
:10018000214601F077FCB0688546FC1F053CA5467A
:10019000F0BD022002F011F884030000D801000035
:1001A000F0B5FFB08EB00C460546009522AE304645
:1001B00001F02EFC3046294601F044FC16AF3046D3
:1001C000394601F057FC01AE3025384631462A4603
:1001D00001F0AAFA009821462A4601F0A5FA513406
:1001E000483609222046314601F033FF7FB00EB079
:1001F000F0BD000080B58B20C2000248002101F054
:100200001FFF80BD00180020F0B587B00D4601909B
:100210004F4C03F0B3F8002800D191E000942F2D4B
:1002200000D890E08B20C2004A480027394601F0F0
:1002300007FF01980179427913020B438179C27952
:1002400012020A4312041A43017843781B020B433B
:100250008178C47824020C4321041943002A6CD10C
:10026000012400250029234600D02B46002A2646DB
:1002700000DB2E46002A00D03346002900D02C4651
:100280006340002B59D1BA0002AB995008307F1C53
:10029000052FCFD306982F4D68632820019E305C30
:1002A0002921715C090201432A20305C2B22B25CB7
:1002B0001202024310040843C2B242402C21715C76
:1002C0002D23F35C1B020B432E21715C2F24345D24
:1002D00024020C43210419430A43002A2DD1012290
:1002E00000260028134600D033460029144600DBC0
:1002F0003446002900D023460143002900D032466D
:100300005340002B19D130216854401EC0B203283D
:1003100013D202A805212A4602F0A0FF0E48295850
:1003200001220A432A5009200203002420462146C4
:1003300001F012FB204607B0F0BD009801F03DFF30
:10034000A01C01F03AFF6720000201F036FFC04612
:10035000846900000018002054040000F0B5A1B02A
:100360000F4606462D4C03F009F800284CD02C48C7
:100370002C4D285CC0074AD0072F4BD903F0E4FD71
:100380003079717909020143B079F279120202439E
:10039000100408433178727812020A43B178F37876
:1003A0001B020B431904114300282AD10122002605
:1003B0000029134600D033460028174600DB374695
:1003C000002800D03B46002900D032465340002B85
:1003D00017D130242A5D15AE28463346FFF748FE74
:1003E0006D4630462946224601F09EF903F066FE2E
:1003F000092002035121284601F0AEFA002021B065
:10040000F0BD204601F0D9FEA01C01F0D6FE601C14
:1004100001F0D3FE6720000201F0CFFE84690000E6
:100420005404000000180020F0B59BB00F46059062
:10043000DD4C02F0A3FF002800D1A3E1DB48DC493A
:10044000085805210140012900D09EE10094932F16
:1004500000D89DE103F09CFDD448D54F385C80075F
:10046000059D843500282BD4287869780A02024338
:10047000A878E978090201430904114328796A79C7
:1004800012020243A879EB791B0203431C041443B4
:100490000020C3434E1E63410122072E00D30246B3
:1004A000002B00D00246002A00D164E138463830E3
:1004B000C9B200F073FCBD48395802220A433A50D1
:1004C0002879697909020143A879EA79120202437D
:1004D0001004084329786A7812020A43A978EB7855
:1004E0001B020B4319041143B24ABB5C5940014340
:1004F000002900D042E18020059D285C8121695CB3
:100500000A0202438220285C8321695C09020143BC
:10051000090411437C20285C7D22AA5C120202435C
:100520007E20285C7F242C5D240204432404144391
:100530007320C0000490385C44400C43002C00D071
:100540001CE15D21695C5E22AA5C12020A435F2104
:10055000695C60242C5D24020C4326041643592157
:10056000695C5A22AA5C12020A435B21695C5C2422
:100570002C5D24020C43270417435935984210D2AE
:1005800000280ED001210024002F0A4600D0224668
:10059000002E00DB2146002E00D00A46002A00D1A2
:1005A000FAE002970396019598422FD200282DD0A9
:1005B0000299039A1143002928D130217C4A535CC7
:1005C000022B1FD3C1007A4A5118332212018F180F
:1005D00002247968012200260029154600DC3546F0
:1005E0003E68002E00D13246002900D02A46002A5B
:1005F00008D100290ADB083F611C844202D89C42D2
:100600000C46E6D300980F3001F0D7FD002810D13A
:1006100001200022039B002B014600DC1146029AB8
:10062000002A00D11046002B00D00846002800D137
:10063000B6E051270598394600F082FB002800D12A
:1006400099E0019A10795179090201439079D279A0
:100650001202024310040843002806DB554854499F
:10066000085C049A895C814238D15520059B185C4E
:100670005621595C090201435720185C58229A5CA4
:100680001202024310040843D95D1F465222BA5C8D
:1006900013020B435321795C5422BA5C12020A43C1
:1006A00012041A430028424E65D101210024002A79
:1006B0000B4600D0234600280D4600DB25460028C7
:1006C00000D02B46002A00D021464B40002B52D1AF
:1006D00030463830394600F08DFB06E0344E304667
:1006E0003830059F394600F06FFB384600F064F85B
:1006F0003048305C0499715C814224D9C100731880
:100700006721C9005A5801210024002A0A4600D056
:100710002246CF25AD005B59002B00DB2146002B84
:1007200000D00A46002A1ED1800030186F21C9006F
:100730004458706B02F044FE844214D2383630467E
:1007400003F080FC13E006AD002452262846214623
:10075000324601F075FC2C70092002032846314610
:1007600001F0FAF804E03836304603F07BFC102440
:1007700020461BB0F0BD009801F01FFD00980D3021
:1007800001F01BFDA01C01F018FD601C01F015FD1F
:100790006720000201F011FD00980E3001F00DFD00
:1007A0000098103001F009FD846900005404000035
:1007B0000018002099030000F0B58BB004465920C2
:1007C000205C5A21615C090201435B20205C5C22B1
:1007D000A25C12020243100408435D21615C5E22A8
:1007E000A25C12020A435F21615C6023E35C1B028E
:1007F0000B431B0413433E4A3E49801859413E4D6A
:1008000001220023A842104600D318463B4DA942BE
:1008100000D31A46A94200D010462546593538491A
:100820000391002860D02146613104AE1B27304679
:100830003A4600F09DFA3046394600F081FA002829
:1008400052D09020205C9121615C0A0202439220E8
:10085000205C9321615C09020143090411438C204F
:10086000205C8D22A25C120202438E20205C8F232A
:10087000E35C1B0203431C041443002934D101220E
:100880000020002C134600D003460029164600DB4A
:100890000646002900D03346002C00D002465340C3
:1008A000002B21D1A8790390E87902902B796E79F9
:1008B000AA78EF7829786D786846446004AC0460C3
:1008C00028020843390211430A0402433002184344
:1008D00002990902039B19430B040343094838306A
:1008E00000F096FA0BB0F0BD039801F066FCC0462C
:1008F000C15D2DD3F7DF090083BB5AA6EFBF1300FC
:100900008469000000180020F0B5E5B00E460746E7
:10091000694C02F033FD002800D1C3E06748684904
:10092000085805210140052900D0BEE00394072E98
:1009300000D8BDE039787A7812020A43B978FB789A
:100940001B020B4319041143CEB20B4673403A7994
:100950007C7924021443BA79FD792D0215432A04C7
:1009600022431343002B00D099E0012300250029E6
:100970001F4600D02F46002A1C4600DB2C46002ACA
:1009800000D027461143002900D02B465F40002F9E
:1009900000D084E04B494A4A515C8E427FD8000720
:1009A000474F27D4F0003C1803F016FBCF208000FF
:1009B0002058002873DA3D46383504AF28463946BA
:1009C00000F02AFCB00028180D218901435830207E
:1009D0003B49085C694681C1394F3D200001381808
:1009E00031463A4602F04FFC3448395808220A434F
:1009F0003A5003E03448385CB04250D13D20000109
:100A0000381841AE314602F071FC04AD90223046F8
:100A1000294600F089FE2D483A5C012081027B5C6A
:100A20000021934200D90846F324285509200203E7
:100A3000F421284600F090FF285D00282CD11F48A3
:100A400039580822914339501E48385CC1007B1840
:100A50006721C9005A5801210025002A0A4600D002
:100A60002A46CF24A4001B59002B00DB2946002B6B
:100A700000D00A46002A0DD1800038186F21C90025
:100A80004558786B02F09CFC854203D9786B294667
:100A900002F0A2FC03F04CFA002065B0F0BD039810
:100AA00001F08BFBA01C01F088FB601C01F085FBB2
:100AB0006720000201F081FB8469000054040000FB
:100AC0000018002099030000020400000104000047
:100AD000F0B58DB00F4606462B4C02F04FFC0028B7
:100AE00048D02A482A4D285CC00746D0072F47D94E
:100AF00003F02AFA3079717909020143B079F27969
:100B000012020243100408433178727812020A4339
:100B1000B178F3781B020B4319041143002826D146
:100B2000012200260029134600D03346002817462C
:100B300000DB3746002800D03B46002900D0324673
:100B40005340002B13D130202A5C01AC28462346A9
:100B5000FFF78EFA204603F063FA0920020300240F
:100B60002046214600F0F8FE20460DB0F0BD20469C
:100B700001F023FBA01C01F020FB601C01F01DFB19
:100B80006720000201F019FB846900005404000092
:100B900000180020B0B50A4D284638307321CA002D
:100BA0000024214601F04CFA0648295802229143BC
:100BB0002950054A2046214600F0CEFEB0BDC04671
:100BC000001800205404000082690000F0B581B0D4
:100BD00003F0BAF91848194C215CCA002046383095
:100BE000851803221202AB5801220026002B13465F
:100BF00000D03346C127BF00ED59002D00DB32463F
:100C0000002D00D013464A1C002B00D10A46D1B259
:100C10003022A35C224600F0A1F9002808D109483F
:100C2000215804220A43225000F00EF801B0F0BD12
:100C30000349401801F0C1FA990300000018002090
:100C4000A069000054040000B0B596B001AC0125C5
:100C500025700848383000F0CDFA25433022294667
:100C600000F062FD092002035221204600F074FECC
:100C700016B0B0BD00180020B0B58AB002F07EFBFF
:100C800000281DD000246D46204602F099FB00216B
:100C9000E971A971697129712870010EE970010C5F
:100CA000A970000A68700835641C052CECD1092075
:100CB00002036846282100F04FFE00200AB0B0BDB4
:100CC000014801F07AFAC0468669000010B5044672
:100CD00002F054FB002804D0204603F0D1F9102084
:100CE00010BD014801F069FA86690000B0B50446FC
:100CF0000025207861780A020243A078E178090291
:100D0000014309041143284602F066FB08346D1CB8
:100D1000052DEED103F0D2F909200203002001468F
:100D200000F01AFEB0BD000080B503F0C7F9002046
:100D3000024A014600F010FE80BDC04682690000F4
:100D400070B5044606F08EF90146012000290ED048
:100D500000221346E65C3546413D5B1C392E02D02D
:100D6000EDB21A2D02D28B42F4D300E0104670BDD2
:100D7000F0B581B014460D4606462846214606F0D9
:100D800071F90746304629463A4601F062F9F019F2
:100D9000E21B392101F054F901B0F0BDB0B50C46A9
:100DA0000546601EC0B2072808D27320C200002189
:100DB000284601F045F903482C54B0BD022001F04B
:100DC000FCF9C0466103000080B51B225201825C21
:100DD000074BC35C9A4208D860235343C31851227F
:100DE0000846194600F0FCFB80BD092001F0E5F93A
:100DF00061030000B0B514460546FFF7E5FF1B2070
:100E00004001285C800028180D2189014450B0BDA4
:100E1000F0B5C3B01F4614462A49435C1B214A0162
:100E2000815C0490801805900E460393994246D841
:100E3000499800904898019006ADF321284605F0A6
:100E400083FF5123204639462A4600F0BCFA294642
:100E5000513102941B240198224600F087FA2A4659
:100E6000A2320197002700983946234600F0ABFADA
:100E70002A46BD3230463946234600F0A4FA2A46B7
:100E8000D83203983946234600F09DFA602070431B
:100E9000049C21183031284600F0DAFA059A1078BF
:100EA000C0002018C1218900019B43500321090281
:100EB000029B43501078411C117043B0F0BD0920D3
:100EC00001F07BF961030000F0B585B00C4600F03D
:100ED000ADFB0020019002901B232546019A287843
:100EE00040B282186D1C5B1EF9D100200390C543EF
:100EF0000126012A0FDBA0194719435718460D3068
:100F00000021012805DB9042114600DC0146581AF9
:100F10003870521A15E0002A19DA2746A01941192B
:100F2000049140570D210B1A5142012B039C06DB03
:100F30008B4200DC19460818049B18700C46A21856
:100F40003C46701C1A2E02D8002A0646D1D11B340A
:100F50000298401C0328BED105B0F0BDF0B59DB08D
:100F60000E93059202917F49435C411804911B2125
:100F70004901425C411806910D929A4200D8EEE078
:100F800000210D460A460F901093CBB2DB000F985C
:100F9000C318032004021F59C126B6009B597D19AE
:100FA0005A41491CCBB2109FBB42109BEDD90A900D
:100FB000039415430220002D00D0CBE06120C00037
:100FC0000F99019008180B90002201200990C0B2DF
:100FD00060240C9460430D18D00008188059002834
:100FE0002FDAD0B20D99814200D8B5E00C98504369
:100FF0000F99081808900E98022822D301240B9FFD
:1010000007921019984200D9A1E006CF0A43083F81
:10101000002A0A9900D09CE0C0B20D99814200D804
:101020009AE030220898294605F0E8FE641C002862
:1010300000D08CE0083760350E988442109B079AE8
:10104000DFD30B9808300B900998401C521C9A4231
:101050000F99BBD9029840420B90D027424C0C9D6F
:101060000B98C1193846D038D02904D00F99091BE4
:10107000496800291CDA0D94C4B206980078A04291
:101080006AD9B8000F99095811AB109305980E9AB8
:10109000FEF7EEFF6C430F9800193022109905F00F
:1010A000ADFE01460420002954D1049803780D9C1C
:1010B000083C781CDAB2CF3F97420746D0D90F9C44
:1010C000019820180B900027039B1092F80021181C
:1010D0008A59C958114300292ED006990A78F9B2C5
:1010E0000E928A42109A37D90C9D694361180D916E
:1010F0007F1C974222D80B990C183D4603CC014324
:10110000083C002910D0F8B20E99814224D90C99DC
:1011100048430F99091830220D9805F06FFE0146DB
:1011200005200029109A15D008347F1C9742E5D974
:101130000F9C039B2F4601E07F1C109A9742C5D954
:10114000204600F013F8204600F02AF802E00A9842
:1011500000E008461DB0F0BD022001F02EF8092085
:1011600001F02BF86103000000FDFFFFB0B5EAB00D
:1011700004466D46284600F04BFC1B204001205CD5
:10118000602242432846214600F068FC03482118AB
:10119000284600F06FFC6AB0B0BDC0466203000094
:1011A000B0B596B00B49441801AD20462946FFF76B
:1011B0008BFE0D215122284605F0D8FD0146002066
:1011C000002905D000213022204600F039FF0120FF
:1011D00016B0B0BD6203000080B51B225201825CD4
:1011E0008A4203D960224A43801880BD022000F061
:1011F000E4FF000080B50649415C1B225201825C7D
:101200008A4202D90349401880BD092000F0D5FF69
:101210006103000062030000F0B585B00C462A4966
:10122000415C1B2201925201825C8A4249D92749C2
:101230004018214600F0FAF9002000900290234661
:101240000198009A197849B28A185B1C401EF9D19E
:1012500000200390C6430127012A0FDBE0198519FE
:10126000835718460D300021012805DB90421146B6
:1012700000DC0146581A2870521A15E0002A19DAC3
:101280002546E0198119049180570D210B1A51420E
:10129000012B039C06DB8B4200DC19460818049BDB
:1012A00018700C46A2182C46781C1A2F02D8002A57
:1012B0000746D1D11B340298401C0328BED105B08B
:1012C000F0BD092000F079FF610300006203000017
:1012D000B0B5002A15D00C4B7B440D2424060578AC
:1012E0002D062C192416032565435C5D0C705C19D2
:1012F00065784D70A4788C70521EC91C401C002A61
:10130000EBD10020B0BDC046B45D0000F0B581B0A7
:1013100016460C4605460321304605F0D1F9002754
:10132000FA4300291FD1304600900326314605F0CC
:1013300041F9009903293A4615D300220092334619
:101340005343EF5CEB18214601241C577443E41906
:101350000227DB5709275F43E3190C46A354521CAD
:101360008242ECD3009A104601B0F0BDF0B503AF55
:1013700085B06E463160D11D072399436B46591ADB
:1013800071608D46B260002A14D07468B568037825
:101390000021392B09D059B23161A521C022F26058
:1013A00032694D2A00DCF168C9182170401C641CA8
:1013B0006D1EECD170683168B268FFF789FFFC1FC1
:1013C000053CA546F0BDF0B583B01E460F46044669
:1013D0000025019210462946324600F031FEFA17E8
:1013E000A01839465141514050400296002E23D05A
:1013F00000952E4602460A43002A24D003220024E8
:10140000234605F04DFA0346E043012A00DC10466E
:101410004542002F00DB054601988555581C4C417C
:10142000012A00DC0C46012A00DC1846761C0299D1
:101430008E422146DED300E00C46204301210028E5
:1014400002D1014600E00099084603B0F0BD00005B
:10145000F0B593B00E46019007A800273022394618
:1014600000F0EEFDF1203C460096059701460198FC
:101470000391405C02903D463E460494B0000690C5
:1014800007AF38580322059C2146234605F04CFA45
:1014900040196141069AB850049C761CA6420D463C
:1014A000ECD9059F0298421C002904D0601C8300DF
:1014B00007ACE15000E02046D1B200291AD0079ACB
:1014C00053180793002401219342224600D20A4672
:1014D000002A0DD001218A0007AB9C58651C9D5045
:1014E000013404D1491C0C240C29F4D300E00C462F
:1014F000844200D804460399481E0029B6D1002230
:10150000D04307AB2C333549794406910590069DAD
:101510000C2A0AD0014651438C0019592C19E46A4F
:10152000A14223D3521CA142F2D901200023044638
:101530000490059A9E0007AFBD59691C044200D172
:1015400029460698805950400918B9510027A942E8
:101550000498064600D33E46A942014600D93946C2
:101560000C4034435B1C0C2BE4D11DE000211A48D5
:10157000784406900B468E00069885596A1C012413
:10158000234200D12A4607A88759D2198251002741
:10159000AA42264600D33E46AA4200D93C462340F2
:1015A0003343491C0C29E6D107A92C310022009DA8
:1015B000059E3046504380000858030E94002B557A
:1015C0002B19040C5C70040A9C70D870521C0C2AF5
:1015D000EFD113B0F0BDC04674610000F45B0000B1
:1015E000F0B5C1B017460C4605465121384604F007
:1015F000E1FF512F18D304A9F23102910026019680
:10160000039004AF512228463946FFF7AFFE0298F7
:101610000199017038462146FFF71AFF03983034CC
:101620005135761C8642ECD341B0F0BDF0B5CDB05B
:10163000009141AD294600F0C6F8284600F0D8F8E0
:101640000020C6434C9900291FDB0146840041AAB3
:10165000019213595F1C0122114200D11F460297CB
:101660002F4F7F443F59029DEF19019D2F510025B7
:101670009F42144600D32C469F4200D92A4611406F
:101680002143401C0C28E1D120E0012500212A46FD
:101690008C0041AB02931B595F1C2A4200D11F46AC
:1016A00020487844005970403F18029807510020A4
:1016B00002909F422C4600D3029C9F422B4600D9A9
:1016C000029B1A402243491C0C29E1D141AF2C371F
:1016D000002001900396029001980446024630468D
:1016E00060438600B8590323002511461A462B464D
:1016F00005F0FAF8B851039E641C0C2CEFD1FF32B0
:1017000004A8029BC2541846401CF228E3D1F221DF
:1017100004A84554F3220099FFF7F8FD4DB0F0BD41
:101720009A5A000042600000F0B599B015460C4688
:10173000039030212846029104F03CFF0190302DA7
:101740001DD300270F4E7E443D46029868430399FF
:10175000081804A9FFF76AFF2046394604AA521A5E
:10176000127852B2B218527B0270401C491E0A46CF
:101770005132F3D151346D1C01988542E5D319B033
:10178000F0BDC04697590000B0B58CB004466D4618
:10179000294600F018F8284600F02AF8012810D150
:1017A00068462C3000218A00831A1B681D0EA55440
:1017B000A2181D0C55701D0A9570D370491C0C2978
:1017C000F1D10CB0B0BD70B52C3100229300C45CD7
:1017D0002406C5186E7836042643AC7824023443B8
:1017E000ED782543CB1A1D60521C0C2AEED170BD3A
:1017F000F0B581B00021CB43C26A012400940446B5
:101800002C34002A2DDB2F4D7D440E460C2E56D055
:101810001A4672439700E259EF19FF6ABA424ED353
:10182000761CBA42F2D90021009C8E0085596F1CAB
:10183000009A144200D12F46234A7A4492595A40C2
:10184000BA1882510027AA42009E00D33E46AA42FF
:10185000009A00D93A4614403443491C0C29E4D17B
:101860002CE00021194D7D440E460C2E27D01A463F
:1018700072439700E259EF19FF6ABA4203D3761C0C
:10188000BA42F2D91BE000210B468E0085596A1C32
:101890000124234200D12A460D4F7F44BF59D2195B
:1018A00082510027AA42264600D33E46AA4200D9CA
:1018B0003C4623403343491C0C29E6D10099084695
:1018C00001B0F0BDF4580000F25800007E5E000048
:1018D00092580000B0B58CB00D460446002D2CD0B7
:1018E00069462046FFF76FFF009A531900930020C6
:1018F0000121934200D2084600280AD0012081002D
:101900006A4653585D1C5550013302D1401C0C28C7
:10191000F5D36D462846FFF76BFF2C35002081007C
:101920006A1A1268130E63546118130C4B70130A71
:101930008B70CA70401C0C28F1D10CB0B0BD0000F7
:1019400080B5FF2252320348002100F079FBFEF7F8
:1019500051FC80BD941D0020F0B581B014460D46A9
:101960000146AF1C7808A9280ED2094E30462A46F7
:1019700000F06FFB200A705570194470B9B2202036
:1019800000F054FF01B0F0BD022000F016FCC0468C
:10199000941D002080B51D48017880292ED1427801
:1019A0000179032A09DD052A11DC042A17D0052A4A
:1019B00028D1401DFFF78CF880BD012A13D0022AE0
:1019C00015D0032A1ED1401DFEF72EFD80BD062A2C
:1019D00011D0072A16D1401DFFF778F980BD401DB0
:1019E000FEF792FF80BD401DFEF70EFC80BD401D3E
:1019F000FEF7B4FC80BDFFF73FF980BD3720400201
:101A000000F0DBFB6D20000200F0D7FB941D0020EE
:101A100080B50321C90101F067FD80BDB0B582B07A
:101A20000C4605460320C101284601F05DFD00215A
:101A300068460160416030232846224601F038FDA7
:101A400002B0B0BD80B582B00A4600216B46196075
:101A50005960302301F02CFD02B080BD10B582B07A
:101A600013460A4600216C462160616001F020FDAA
:101A700002B010BD10B582B00C4630216A46146029
:101A8000516001210023224601F012FD2046FFF79C
:101A90007BFE02B010BDF0B583B016460C46302771
:101AA000694690C10121002522462B4601F000FD28
:101AB000304621463A4600F0CCFA3046FFF764FE45
:101AC000601B0178C94301706D1E28463030F7D184
:101AD00003B0F0BDB0B505460F2028400024012812
:101AE00013D0022813D1002908D00A4801F058FD6C
:101AF00068B2002809DA01F099FC06E0FF215231B2
:101B00000448002201F078FD04462046B0BD0220C2
:101B100000F053FB941D002080B500F0FDFD80BD5A
:101B2000F0B585B0BE4D2878052829D00D284CD0B9
:101B30000C2800D03FE1BB4C012020760026E66156
:101B40002046183001F016FDE06100F08CFFE069DE
:101B5000B549884200D12EE1002800D12BE1B349DC
:101B6000884200D0BCE000F091FCA660206800280C
:101B700000D120E1E069AC49884200D08AE01AE156
:101B8000A84C012020760026E6612046183001F09E
:101B9000F1FCE06100F067FFE069A349884200D1F1
:101BA00009E1002800D106E1A049884200D0D1E037
:101BB00000F06CFCA6602068002800D1FBE0E06922
:101BC0009949884200D088E0F5E0964C6068A168A9
:101BD000814200D3EFE0012020760025E561204618
:101BE000183001F0C7FCE06100F03DFFE0698E496C
:101BF000884200D1DFE08D49884200D1E4E000282E
:101C000000D1D8E02068002800D1CEE0A06861684B
:101C1000884200D3C9E001F0D9FC002800D0C4E01C
:101C2000A068E1683825684322681018002902D0AE
:101C30008847002807D0012803D1A06845432068C1
:101C4000401900F069FDA068401CA06021680029CF
:101C5000DDD1AAE06068864200D3ACE001F0B6FCBA
:101C6000002800D0A7E0A068E16838256843226812
:101C70001018002902D08847002807D0012803D176
:101C8000A06845432068401900F046FDA068461C46
:101C9000A66020680028DDD18DE06068864200D310
:101CA00089E001F093FC002800D084E0A068E1689E
:101CB0003825684322681018002902D08847002878
:101CC00007D0012803D1A06845432068401900F0DF
:101CD00023FDA068461CA66020680028DDD16AE0CC
:101CE000A088049020680390EE79AB796F792A7907
:101CF000ED78E16868460560416012023A431B02D4
:101D000033430398049900F039FC206800284CD034
:101D1000A0686168884248D201F058FC002844D18C
:101D2000A068E1683825684322681018002902D0AD
:101D30008847002807D0012803D1A06845432068C0
:101D4000401900F0E9FCA068401CA060216800294F
:101D5000DFD12AE02069002803D0E978490800F0A3
:101D60002BFD2068002820D0A068616888421CD222
:101D700001F02CFC002818D1A068E16838256843E0
:101D800022681018002902D08847002807D00128AF
:101D900003D1A06845432068401900F0BDFCA0684D
:101DA000401CA06021680029DFD16068A1688142E1
:101DB00001D301F00BFC01F009FC002801D100F077
:101DC00009FA012005B0F0BD00F060FBA5602068B5
:101DD0000028F0D0E069144988421ED1EBE7606822
:101DE0008542E8D201F0F2FB0028E4D1A068E16866
:101DF0003825684322681018002902D08847002837
:101E000007D0012803D1A06845432068401900F09D
:101E100083FCA068451CA56020680028DFD1CAE7C4
:101E2000581C0020D81C0020445010B0555010B051
:101E300070B58CB000250B9501F0A0FA02F06AF89D
:101E4000FFF77EFD264E6C46204605F083F8208580
:101E5000224908421ED069460D850F210903014021
:101E600003225203914207D009221203914203D068
:101E70006F210902C0B2084382B2002420462146E5
:101E8000FFF76AFD01F07AFA012801D102F00AF9A0
:101E90000B9410E0684600F028F80B98C0B20021BF
:101EA00000F0C4FC042815D33179091D884211D3F0
:101EB000FFF770FD0B9000F085F96946884203D169
:101EC00000F082F900F011F86846008D0028BAD0C1
:101ED00000F073F91B20800200F06FF9FFFF000093
:101EE000941D002000208146704781467047000005
:101EF000F0B581B000920F460546484B9F420FD087
:101F0000464C40262046314604F01EFF00984028EB
:101F1000024600D332462046394600F09AF83F4B3D
:101F2000987801280BDC00282BD0012869D1D81C17
:101F300004211C4601F0A4FA402120462CE002288E
:101F400028D005285DD11879D97809020143344A8F
:101F50001068002481425AD1324E00988019071F20
:101F6000106800281BD01446394631402E480268BC
:101F7000914200D907683A4632402C480068591D02
:101F800031E000249C715C711C71DC7040211846AA
:101F9000A8473CE021484021A847002437E0987931
:101FA0005979090201432248016001684908A829BA
:101FB0002DD8144601681C4801601C491D4A0A605E
:101FC00059781A7812020A431B490A601B49009A81
:101FD0005718394631400268914200D907683A469D
:101FE0003240D91D134800F034F837400F480168DB
:101FF000C91901600C480168C91B01602068401CB8
:1020000020600948016801200224002903D1044806
:10201000002101602046C0B201B0F0BD4C1F00207D
:10202000881D0020FFFF0000901D0020E81E0020FA
:102030008C1D0020941D0020EC1E0020F9FF0100E3
:1020400080B50B46002A03D011461A4604F086FEDE
:1020500080BDB0B588420DD9002A14D0491E524225
:10206000401E0023DB431C4654430D5D0555521CA6
:10207000F9D108E0002A06D000239CB20D5D055579
:102080005B1C521EF9D1B0BD0148002101607047B0
:10209000881D0020F0B585B0019300920E46039094
:1020A000002E47D0324C0020206032493248086070
:1020B000324F781D39250290294604F045FE3048FC
:1020C00001460868000A3870086878700520B87002
:1020D0002068000AF87020683871B1B220680028C2
:1020E00004910AD03B203B290E4600D306462148E6
:1020F000024611680298154609E0300A7871BE71EF
:1021000039290E4600D32E461A4D2968F81D32464D
:10211000FFF79FFF164C2868801928602068401C34
:10212000206040213846039A90470498861B154842
:102130000642BED10E48002404608020019D054265
:1021400001D001F073F9A8060FD40C4C009D40217A
:102150002046A847C2B2402AF9D803982146FFF783
:10216000C7FE0228F3D108480468A0B205B0F0BD4C
:10217000881D0020E81E0020941D00204C1F002018
:10218000EC1E0020FFFF00008C1D002070B5431ED8
:10219000491E52420020C443002A0CD02646564312
:1021A0008D5D9E5D521CAE42F6D00020C1430120E1
:1021B000AE4200D80846C0B270BD80B50146484660
:1021C00004F0D4FE4846704700204946002900D05C
:1021D0004869704780B501F0F9F900280BD106482D
:1021E000602101700021417002228270C170017172
:1021F000052101F0D5F980BD581C002010B5134809
:10220000C078032807DC01280DD002281DD1104812
:1022100003F07EFD10BD042814D0082815D10C4809
:1022200003F074FD10BD0A4C0121204603F069FD46
:10223000204603F046FD07480078002805D010200E
:10224000FFF7BBFF024803F05FFD10BD581C0020E4
:1022500088200020F81E00207F2101400148405CBA
:102260007047C046F91E002080B510480179042946
:1022700008D0022911D001290ED1811D0D4803F08B
:1022800022FC80BDC2787F2111404279084B5A540C
:10229000821D084803F045FC80BDC2787F211140B3
:1022A000821D044803F097FC80BDC046581C0020E6
:1022B000F91E002088200020F0B581B014460546A4
:1022C000FF2C3AD81F4E50203070E01C0091010ABC
:1022D0007170B07080200543F570202030717471EA
:1022E000062130461F4601F05BF90098214601F0B7
:1022F00057F9781C022820D306E0152902D1B079BD
:1023000000071CD500F020F801F060F9002801D189
:10231000FFF760FF80210022304601F06DF931782F
:102320000628EAD11029E8D1F078A842E5D1307921
:102330000228E2D17079A042DFD101B0F0BD1020B7
:10234000FFF73BFF581C002080B51E48827841787B
:102350000902114300780F280ADC0E2810D00F283C
:102360001DD10020042921D1FFF748FF012080BDA5
:10237000102818D0162812D100F032F8012080BDA4
:102380001148016800290AD002686421632A00D834
:1023900001680268511A0160006800280BD0022011
:1023A000FFF7BEFB80BD0020062900D280BDFFF7ED
:1023B0005BFF012080BD0548002101701020FFF760
:1023C000FCFEC046581C0020F41E0020FF1E00200A
:1023D00080B50A46014682201423FFF76DFF80BDB9
:1023E00080B50B480178002910D10A4905220A70EE
:1023F0000A21017008488178427812020A4307498D
:102400000A800A88C11C0648FFF723FE80BDC0462B
:10241000FF1E0020F81E0020581C0020001F002076
:10242000941D002010B5082000F0EAFF0C480D496B
:1024300001600D48002404700C4804800C4804809E
:102440000C4804800C4804700C480460FFF71CFE24
:102450000B4804600B4804600B48046010BDC04684
:102460009C2100203100ADDEFF1E0020021F002055
:10247000001F0020041F0020F81E0020F01E002076
:10248000081F00200C1F0020101F00200148002101
:1024900001607047081F0020B0B50D460446206B50
:1024A00000280CD000F096FE01462046884700F038
:1024B00091FE0021002810D0012800D00446002DF4
:1024C00007D02046A8470021002806D0012800D0C8
:1024D00004462046FFF720FB01210846B0BDB0B5F9
:1024E0008EB00C460546686B00280CD000F072FEDA
:1024F00001462846884700F06DFE0021002816D0CE
:10250000012800D00546684638222946FFF7A1FD7C
:10251000686A0490A86A0590002C04D02846A04759
:102520000021002803D06846FFF7F6FA012108468B
:102530000EB0B0BDB0B50D460446E06A00280CD020
:1025400000F048FE01462046884700F043FE002187
:10255000002810D0012800D00446002D07D02046C6
:10256000A8470021002806D0012800D004462046B4
:10257000FFF7D2FA01210846B0BD0000F0B587B0E0
:10258000029303920591002977D004900D98019051
:102590000C98009000253C4B06952F461E4601F0F6
:1025A00015F8002855D138206843049C2518334677
:1025B0001A680121954200D00699069120560028FC
:1025C00041DA2020285C0221695E0A1A039CA2429B
:1025D00039DC4118EA888918039A8A4233DA0421DF
:1025E0006C5E221A02998A422DDC20182989401833
:1025F0000299814227DA1868854210D018680028AD
:102600000DD00198002805D0284601998847334607
:10261000002818D018680199FFF73EFF08E00098DD
:10262000012809D002280ED128460199FFF782FF20
:102630003346002807D022E028460199FFF74FFFD4
:10264000334600281ED17F1CFDB205988542A5D3D4
:1026500000E03346069800060FD0186800280CD01A
:1026600000F0B4FF3146002807D108680199FFF750
:1026700013FF002801D00020306007B0F0BD00201B
:102680001860FAE71D60F8E7081F0020F0B589B070
:102690000C46014602AD1C2228460192FFF7D9FCE8
:1026A0002168E98062682A81A0681A4F65233B701F
:1026B00092B242438BB25343D9084E1C07221342B5
:1026C00000D10E46314600910426864070181D3018
:1026D000010A7970B8700321384600F061FF28467E
:1026E000019900F05DFFA06838700121384600F0C4
:1026F00057FFE06800F06EFDB1B200F051FF0098A6
:1027000085B2206900F066FD294600F049FF09B056
:10271000F0BDC046581C002070B5044620787F26C6
:10272000064000F053FF002830D1002E2ED0E06983
:1027300000281DD000F04EFD0546052E02D1A07EDA
:10274000002824D0284604F01FFC064612486521C4
:10275000017031461C310A0A42708170032100F079
:102760001FFF1C21204600F01BFFB1B228460BE0E2
:10277000094865210170002141701C2585700321E5
:1027800000F00EFF2046294600F00AFF70BD2046EB
:102790002946FFF77BFF70BD581C002080B5054817
:1027A00046210170002141708170032100F0F8FE84
:1027B000FEE7C046581C0020F0B581B00446002C4E
:1027C0002BD0174802688A4203D1164A13685B1C53
:1027D000136006680E43134A1568134F002901D091
:1027E000066004E00023036013607B1C1E43006846
:1027F000884201D000201060082D0BD30321284609
:1028000003F05EFF012080073043002900D03046EE
:10281000384000E030462946A04701B0F0BDC04630
:102820000C1F0020101F0020FFFFFF7FF0B583B0BA
:102830000D460446734800687349884200D0D8E0CA
:102840000F20044207D020462946FFF743F90546EA
:10285000A8B203B0F0BD102626406C4F002D6FD0FB
:10286000002E6DD17D200001694908606949087812
:102870000828029717DD092821D00A2845D10F46DC
:102880006808A92800D3B9E0654853210170290AD6
:1028900041708570032100F083FE5F48294600F0F7
:1028A0007FFE394639E007282DD16348784400225D
:1028B00020230F462946FFF7EDFB39462DE0E81DA2
:1028C00001904008A92800D398E07C20C0430D3037
:1028D000514948554819002747700298001DAA1C05
:1028E0000240481D0D46FFF7B4FB05222846394635
:1028F000FFF7A6FB019883B2484883212A4601F0DE
:10290000F7F9444909E0002875D020460F462946CA
:10291000FFF7E0F8394600286DD100250D704148D9
:102920000580414805804148058041480570A00662
:102930008ED4FFF74FFC2006029F01D500F076FDF4
:10294000002E0CD1600650D4324800210170354869
:102950000180354801803548018035480170304C90
:10296000314E324F02E00220FFF7DAF800F02EFE7F
:10297000002801D1FFF72EFC8021002520462A46A1
:1029800000F03AFEC11EA27863781B0213439942FD
:1029900015D127490978002902D0FFF7D5FCE5E7D2
:1029A00021780F2906D0102911D01629DBD1FFF785
:1029B00017FD11E0042802D1FFF720FCD6E7002024
:1029C000144908701749088030803880CEE70628FF
:1029D00000D23DE7FFF748FC30880028C6D01548F4
:1029E00000680B490860358832E70F480088C51930
:1029F0002EE7FFF7D3FE0920FFF7DFFB0220FFF7EA
:102A0000DCFBC0469C2100203100ADDEFBFF000056
:102A1000F41E0020FF1E0020941D0020141F002023
:102A2000581C0020021F0020001F0020041F00204F
:102A3000F81E0020F01E002021FBFFFFB0B582B081
:102A400001AC66212170002565700121A170E07044
:102A50000421204600F0A4FD032120462A4600F070
:102A6000CBFD02B0B0BD704783B0F0B58CB004466A
:102A700011A80EC0002C00D18DE111A8079086E1AD
:102A800025460026014602E0A9194978761CCAB2FB
:102A9000002A01D0252AF7D1AC19002E0CD0C0B2E3
:102AA000FFF7CCFF012E06D00127E85DFFF7C6FF38
:102AB0007F1CB742F9D12178C8B2252800D066E141
:102AC000A819431C0021202004900A20069103919C
:102AD00005910422D54302221C462378641C00275A
:102AE0002D2B0DDC3946F8D0252B7FD02A2B00D09A
:102AF000FAE02178732900D0F6E0114623464BE036
:102B0000472B14DC1A46303A0A2A34D2302B049D63
:102B10002A4600D11A46059F002F00D02A460A25D2
:102B20007D43EB18303B059304922346D1E7672B96
:102B300004DD722B08DD732B34D10AE0622B36DC06
:102B4000482B43D1012002E0682B45D1002003909F
:102B50001020079B1F1D079703273940521C1F6831
:102B6000012900D1BBE0022900D1BAE003291146B6
:102B70002346AED0C1E02E2B00D0B5E021782A2923
:102B800000D0B1E06278631C0121482A04D0682A91
:102B900002D0732A00D0A7E0079A141D0794126888
:102BA000069296E7752B23D0782B18D09CE0632BE8
:102BB00000D18DE0642B00D096E00798011D0791AD
:102BC0000068C11742184A40C00F16E0582B00D0C9
:102BD0008AE00120039002E0702B00D084E0079887
:102BE000011D079102680020102607E0252073E0F0
:102BF0000798011D0791026800200A26029001270C
:102C00000692964212D8012530460746314603F017
:102C1000D1FCA84209D1304678430599491E059157
:102C2000069988423D46F0D900E02F460025E94349
:102C3000029B002B00D11946059801914018049978
:102C4000CAB2302A06D1002B04D008A92D230B705C
:102C500001250023811E0D290CD8411E0AD008A889
:102C60002843029304F07AF8029B059840190199D1
:102C70004018451E002B03D008A82D2141556D1C7E
:102C8000002F1BD00398002802D04948784401E067
:102C90004648784405900698394603F08BFC314647
:102CA00003F00EFD0598405C08A9485538463146AA
:102CB00003F080FC6D1CBE420746ECD9002D66D0A7
:102CC00008AE3078FFF7BAFE761C6D1EF9D15EE0D3
:102CD0000798011D07910078FFF7B0FE57E0069AAC
:102CE00011E0387800283FD02D48784440194079C9
:102CF000FFF7A4FE6D1CF7D149E02A1DB9184978E9
:102D0000521C0029FAD106921028039E1FD1069862
:102D10001AE038780F2505400009012E05D0002E55
:102D20000ED1C0B21F4E7E4402E0C0B21E4E7E44A1
:102D3000305CFFF783FEE8B2305C039EFFF77EFE57
:102D40000698401E7F1C06900028E2D11FE0002656
:102D50000698002810D00025069E785DFFF76EFECD
:102D60006D1CAE42F9D107E0281D0699451A2020B6
:102D7000FFF764FE6D1CFAD10599B14207D9881B93
:102D800005D0751A2020FFF759FE6D1CFAD1207866
:102D9000002800D074E60CB0F0BC01BC03B00047C2
:102DA00092440000364400003E440000CA44000043
:102DB000E044000081B0F0B590B015460C460A9092
:102DC0001593022C00D2F5E10A98002800D1F1E118
:102DD000002D00D1EEE100210A9807912246FFF76D
:102DE0002FF915A80B902878002800D1E2E1079967
:102DF000C943671E0591C2E12819295D25290BD118
:102E000003970292431C0020202108910A2101917E
:102E100000900490099056E005460A9221E12B4665
:102E200008464BE0472B13DC194630390A2934D2C7
:102E3000302B089900D11946099F002F00D008991E
:102E40000A227A43D218303A09922B4608913AE086
:102E5000672B04DD722B09DD732B46D10AE0622B50
:102E600048DC482B55D10122049201E0682B56D151
:102E7000102201920B9A131D0B93032318404F1C31
:102E80001168012800D1D0E0022800D1D2E0032847
:102E90002B463846069F16D0E9E02E2B00D0CCE01A
:102EA00028782A2800D0C8E069786B1C01204829BE
:102EB00004D0682902D0732900D0BEE00B990A1D06
:102EC0000B920968009102211D462B786D1C00228F
:102ED0002D2BA7DC1046F8D0252B2AD02A2B00D08A
:102EE000ABE0287873289AD0A7E0752B23D0782BF5
:102EF00018D0A2E0632B00D18DE0642B00D09CE0C1
:102F00000B98011D0B910068C11742184A40C00F71
:102F100016E0582B00D090E00120049002E0702BC6
:102F200000D08AE00B98011D0B9102680020102749
:102F300007E0252073E00B98011D0B91026800202B
:102F40000A27069001260A92974212D80124384691
:102F50000646394603F02EFBA04209D1384670439D
:102F60000999491E09910A9988423446F0D900E02E
:102F700026460024E143069B002B00D11946099800
:102F8000019140180899CAB2302A06D1002B04D00A
:102F90000CA92D230B7000230124811E0D290CD8B0
:102FA000411E0AD00CA82043069303F0D7FE069BCF
:102FB0000998001901994018441E002B03D00CA851
:102FC0002D210155641C0498002E1AD0002802D02F
:102FD0007F48784401E07D48784409900A9831465A
:102FE00003F0E8FA394603F06BFB0998405C0CA942
:102FF00008553046394603F0DDFA641CB7420646F0
:10300000ECD9039B9C4200D31C460CA9029E30467F
:1030100022461F461CE00B98011D0B910068029987
:1030200008700398401E491C16E0009C059A039BFB
:10303000069F24E00878002877D00520039F052FFD
:103040003C4600D304465E497944029E30462246FF
:10305000FEF7FFFF381B31190A910746002800D1FF
:10306000A8E028780028059900D088E0A2E0059A19
:103070001446039B08194078641C0028FAD1019873
:103080001028029846D1002C76D008910A9883180F
:10309000D01B8642314600D8014603914A43029232
:1030A000501C019000203A460A9302995B1809903F
:1030B0000899085C0F270740000903998918491CE3
:1030C000022977D30499012904D000290AD13E4965
:1030D000794401E03B497944C0B2085C1870F8B209
:1030E000085C58700198904264D0921E0A9B9B1C09
:1030F0000998401CA042D7D3099005990698081A50
:10310000864200D806460846704318180A90B01840
:10311000471C1CE09C4200D31C46224606461F4624
:10312000FEF797FF381B31190DE0039B009F9F426C
:1031300000D31F462021029E30463A46FEF780FF0C
:103140000398C01BF1190A910746002832D009984C
:10315000A04286D9041B3E46B44200D33446202107
:103160000A9F38462246FEF76BFF361B3F190A9727
:103170003746002E1ED074E71F460A9071E70E46B0
:10318000079C03E028194078761E641CC0B2002812
:1031900001D02528F6D1BC4200D33C460A982946E6
:1031A0002246FEF756FF06973F1B0A980219002F8A
:1031B00000D021E6002010B0F0BC02BC01B00847EE
:1031C00034410000964000008C4000008441000023
:1031D0009A41000080B50449884204D303498842DB
:1031E00001D200F005F880BD0000D0C08077D0C0CB
:1031F0007A460249C91C891A401A7047F131D0C079
:10320000F0B5EDB001920D4604462F2D23D902A84A
:10321000FEF7FEFB3021284603F0CCF907460026D6
:10322000009402A82146FEF70DFC3034761CBE4205
:10323000F7D33021284603F043FA002905D000983F
:103240004119303902A8FEF7FDFB02A80199FEF7EB
:1032500011FC6DB0F0BD0220FEF7AFFFB0B592B02B
:1032600014460A46014602AD284620306B461860D7
:1032700021202B4600F050F9402128462246FFF736
:10328000BFFF12B0B0BDF0B5EBB01E4617460D46FD
:10329000044600218422FEF7D3FE30222046394620
:1032A000FEF7D7FE20463146FEF714FB6E46304649
:1032B000FEF7AEFB30462146FEF7C4FB3046214602
:1032C000FEF7D8FB1B2070994143881C032103F0B3
:1032D00071F9FF3031216054322025543334719913
:1032E00051222046FEF7B5FE6BB0F0BDF0B5F1B04F
:1032F00005910546302003902C5C3120285C29463E
:1033000030310191844236D806A82946FEF786FB63
:10331000032060432818333002900024049503985A
:10332000604305990E1806A829463246FEF7B3FBFE
:10333000029805570D2D0ED00D3D06AF3846FEF70D
:1033400067FB38463146FEF77DFB38463146FEF7CF
:1033500091FB6D1CF1D1022C049D03D206A82946D5
:10336000FEF75CFB641C032CD9D1019A1078411C38
:10337000117071B0F0BD0920FEF71FFF80B5044841
:10338000FFF728FF01780020012900D1084680BD01
:103390004077D0C010B586B06C4601202070201D4B
:1033A00000211422FEF74CFE0448FFF713FF1822F9
:1033B000214600F04FF806B010BDC0464077D0C09F
:1033C00010B504460348FFF705FFA1004018406808
:1033D00010BDC0464077D0C010B582B00446019100
:1033E0000548FFF7F7FEA1004018001D01A90422BF
:1033F00000F030F802B010BD4077D0C001DF704758
:1034000080B582B0009007486946FFF7F7FF01AA30
:1034100011600549884201D102B080BD0420FEF749
:10342000CCFEC04637010060C601009080B582B076
:10343000064801A9FFF7E2FF6A4611600449884285
:1034400001D102B080BD0420FEF7B7FE000200608B
:10345000F102009080B584B000AB07C3064869460E
:10346000FFF7CCFF03AA11600449884201D104B0E0
:1034700080BD0420FEF7A1FE7F030060BC03009026
:1034800080B584B001900291074801A9FFF7B6FF0B
:1034900003AA11600549884202D1039804B080BD97
:1034A0000420FEF78AFEC0462C05006067050090E8
:1034B00080B588B001AF0FC70A9805900B980690A9
:1034C000074801A9FFF79AFF07AA1160054988423A
:1034D00002D1079808B080BD0420FEF76EFEC046FA
:1034E0003B070060AD07009080B584B00190029169
:1034F000074801A9FFF782FF03AA11600549884226
:1035000002D1039804B080BD0420FEF756FEC046E9
:10351000CF100060D810009080B586B000AF0FC704
:103520000898049006486946FFF768FF05AA1160ED
:103530000449884201D106B080BD0420FEF73DFE5B
:10354000BA5000601E50009080B582B000900748CD
:103550006946FFF753FF01AA11600549884201D16E
:1035600002B080BD0420FEF728FEC046E15F006087
:103570006F5F009080B582B0009007486946FFF702
:103580003DFF01AA11600549884202D1019802B0AD
:1035900080BD0420FEF711FE586100601F6100909D
:1035A00080B584B001900291064801A9FFF726FF7B
:1035B00003AA11600449884201D104B080BD0420EF
:1035C000FEF7FBFD1C6E0060F36E009080B582B0CC
:1035D000074801A9FFF712FF6A46116005498842B2
:1035E00002D1009802B080BD0420FEF7E6FDC0467F
:1035F000CF6F00607F6F009080B584B000AB07C3D1
:1036000007486946FFF7FAFE03AA11600549884298
:1036100003D103A8008804B080BD0420FEF7CDFDCF
:10362000D17000602B700090F0B585B021490A7808
:103630008321002A02D0244A7A4404E00A9A452AC7
:1036400006D8224A7A44022300F052FB05B0F0BDAE
:1036500001AC07C4402004931F5C002F0ED0049ED1
:103660004136002414A5E0B2032103F029F8305DAF
:10367000695C41403155641CA742F4D1452004994E
:10368000085C4630039A82420DD141310B483A46DC
:10369000FEF7DFFC0A4807800A480621017009206E
:1036A00004490870D2E70A4A7A4402230198029931
:1036B000CAE7C046FF1E0020494F5400941D002059
:1036C000001F0020F81E00204C3B0000423B000081
:1036D000E03A0000F0B581B01D460E46044628468B
:1036E00000F0F6FA012804D168460421FFF7C8FE6D
:1036F00004E0684604222946FEF7ABFC174F082277
:1037000038463146FEF7A5FC3846083069460422A3
:10371000FEF79FFC02203873002078730121B973F3
:10372000F8733874284600F0D3FA8625012807D1AB
:1037300028467930C1B204222046FEF781FC04E01D
:10374000694604222046FEF784FC044A11232046E1
:10375000294600F0CDFA01B0F0BDC046941D00200E
:10376000F0B583B00B460290987959790F02074360
:1037700059781E781546093DA8B2832401941F4C40
:10378000874203D0D21F1440A7421BD13D46002ED2
:1037900008D01B4A7A4402230298019900F0A8FA43
:1037A00003B0F0BD022917DC012920D002291BD16A
:1037B000A8B269460860DB1D002102980A46FFF79F
:1037C00033FFEDE7E8B28742E1D0D0B28742154639
:1037D000DDD00C4A7A44DEE703290BD0C12903D19E
:1037E000094A7A440423D7E70A4A7A44D3E7074AC6
:1037F0007A44D0E7064A7A440823CDE7FFFF000069
:10380000023A0000B2390000B039000092390000DD
:1038100094390000AE39000080B581698A784B7810
:103820001B0213430A78812A09D0832A0CD0862AE6
:103830000ED1C91C00220346FFF74CFF80BDCA1CF5
:10384000812100F055FA80BDC91C1A46FFF788FF98
:1038500080BD000070B50D460146012A12D1174CFB
:1038600020462A46FEF7F5FB60194026721B00250C
:103870002946FEF7E5FB8120214632462B46FEF71E
:103880001BFD70BD02A01146FFF7EEF870BDC046EB
:103890005265717565737420746F2073656E642052
:1038A0006F6E20756E737570706F72746564206DC5
:1038B000656469612025640A000000004C1F002037
:1038C0008160828100220277428242778275816123
:1038D00070470000F0B583B00446207FC01EC0B220
:1038E000012854D8A68A628A964223D9042300204C
:1038F0000291012900D003460190A07D03270125F4
:10390000002800D02F461F434023DD1BB11AA942D7
:1039100000DC0D46EE190299012906D11D4804224A
:1039200021460192FEF795FBA07D00280BD0FF30C9
:10393000019915E02BD10020207760826077A07577
:10394000A068A06123E03420205C019B99B2114A59
:1039500050540120184381B2637D5354411C207D93
:1039600089B20C4B5854A169002905D0AAB2D819C4
:10397000638AC918FEF76DFB608A40196082A07DDA
:10398000401CA075B1B20348029AFFF763FF03B071
:10399000F0BDC0464C1F0020F0B589B01E4604465D
:1039A0002671207F831E85250895022B10D2C348DF
:1039B00006210172042121770021A1750830A06140
:1039C00061820120A08208993A313420215463E0B9
:1039D000042806D10020207760826077A075A06857
:1039E000A061079104210020012E00D0014601238F
:1039F0000D461D43AA4241D30691012E059209D1DD
:103A000004222046079904961F46FEF722FB059ADA
:103A10003B46049E608AAA49002803910ED0012EDD
:103A200027D120460E300422214604961F46FEF779
:103A3000ADFB059A3B46049E00281AD00327069941
:103A400008463843824219D30497079847180297CB
:103A5000405608997A3149B288423CDD97480421A2
:103A6000017221770021A1750830A0616182A382D3
:103A7000A9E7022006990843824213D28F48089A88
:103A80000272042121770021A1750830A0616182B2
:103A9000A3823A323420225421792046FFF71AFFBC
:103AA00009B0F0BD607FB04248D1207F012852D1DB
:103AB000012E75D1042207982146029204961F46D2
:103AC000FEF764FB3B46049E002869D07B48062134
:103AD00001720299C5E70193012E049F12D1207F44
:103AE00001281BD121460E3104222046FEF74EFB51
:103AF000002807D0029800780899491CC9B288426A
:103B000000D0C1E0207F012808D1012E67D10298A2
:103B100000780899491CC9B2884260D102200699F0
:103B200008430799085C495D0D020543A089C01E42
:103B300085421BDD61480772042153E0089A104654
:103B400008305E490872042020770020A0750831F3
:103B5000A16160829CE7012E00D07FE700202077E2
:103B600060826077A075A068A06199E702980078EC
:103B70008128019A03D086283CD0832873D1012E56
:103B800043D150497944042720463A46FEF7FEFACD
:103B9000002800D18CE04C4979440422204630E0D2
:103BA0000698079A1118105CA27D904200D055E744
:103BB00001930598451B608AA28A121A954200DB80
:103BC0001546039A2A40A3691818491CFEF741FAC2
:103BD000608A40196082A07D401CA0752EE03748A5
:103BE0000421017221770021A1750830A061618252
:103BF0000198E7E6012E36D134497944042720465E
:103C00003A46FEF7C3FA002852D005980699471A9B
:103C1000ED1CAF42039900DB2F463940A0690A46EC
:103C20000299FEF716FA6782A58266770020A075D2
:103C300020460E3004222146FEF70BFA608A012E40
:103C4000019B01D1A18A08E0A18ACA1C904204D933
:103C50001A4803210172042103E788420ED2002092
:103C6000A06223771CE71548027204212177002106
:103C7000A1750830A0616182A282A4E602202077AB
:103C80002046FFF7C9FD0BE70C4D042228462146CC
:103C9000FEF7DFF908983A30287100206871019A20
:103CA000AA710620E87108212846FFF7D3FDF7E640
:103CB00002480B210172277795E7C0464C1F002070
:103CC000FFFF00001636000006360000A435000095
:103CD00080B5064979440422FEF758FA01460120CE
:103CE0000022002900D0104680BDC046C634000026
:103CF00010B5032404770024847582614482838292
:103D000034228154417FFFF7E5FD10BDB0B5204C52
:103D10002148784420600F2060602048784420616A
:103D20000025E56003202076E56120461830FFF786
:103D300021FCE061FEF797FEFEF7A8FBA560206876
:103D4000002824D0E069134988421ED11FE0606832
:103D500085421CD2FFF73AFC002818D1A068E16820
:103D60003825684322681018002902D088470028A7
:103D700007D0012803D1A068454320684019FDF70A
:103D8000CBFEA068451CA56020680028DFD1B0BD2F
:103D9000D81C0020445010B0923400008100000074
:103DA00080B500F095F9002080BD0000F0B581B02D
:103DB000FEF710FA454C8021002520462A46FFF7E1
:103DC0001BFC434E71E001203076F561304618301F
:103DD000FFF7D0FBF061FEF746FEF0693D498842EF
:103DE0005CD03D4988422CD0002857D0306800284C
:103DF00020D0B068716888421CD2FFF7E7FB00282A
:103E000018D1B068F1683827784332681018002953
:103E100002D08847002807D0012803D1B068474363
:103E20003068C019FDF778FEB068401CB06031689A
:103E30000029DFD17068B16881422FD3FFF7C6FB3C
:103E40002CE0FEF723FBB5603068002826D0F0692F
:103E50002049884222D0002820D028467168884214
:103E60001CD2FFF7B3FB002818D1B068F1683827DF
:103E7000784332681018002902D08847002807D0FC
:103E8000012803D1B06847433068C019FDF744FEEC
:103E9000B068401CB06031680029DFD1FEF79AF9A4
:103EA000802100222046FFF7A7FB20780D28F5D1BE
:103EB0007068B168814286D3FEF78CF9034880218F
:103EC0000022FFF799FB01B0F0BDC046581C00204E
:103ED000D81C0020445010B0555010B0B0B50A485E
:103EE000002469222146FEF7ABF808481222214639
:103EF000FEF7A6F8064D782228462146FEF7A0F8E0
:103F00006C70EC702C74B0BD8C1F0020F51F00206D
:103F10000820002010B50446FFF7E0FF03480470B6
:103F2000847000F051F9FFF7F1FE10BD0820002069
:103F300080B50120002100F0B1FC00F0BBFC00F0D6
:103F400043F9FFF7E3FE80BD10B500F0A9FD0AA01C
:103F500001210224224600F06BFD0B4810300021A5
:103F600000F0C2FD00F0A6FC08480470FFF7CEFE8A
:103F7000FFF71CFF10BDC04643616C63756C617434
:103F8000696E672E2E2E0000F51F002008200020ED
:103F900010B500F085FD0AA001210224224600F0A0
:103FA00047FD0B481030002100F09EFD00F082FC20
:103FB00008480470FFF7AAFEFFF7F8FE10BDC046E0
:103FC000526563656976696E672054582E2E2E00FF
:103FD000F51F00200820002010B500F061FD0AA0A8
:103FE00001210224224600F023FD0B48103000215D
:103FF00000F07AFD00F05EFC08480470FFF786FED2
:10400000FFF7D4FE10BDC0465369676E696E672026
:1040100054582E2E2E000000F51F002008200020EE
:1040200080B507491131FCF7BBF80920002100F0E9
:1040300035FC00F0C9F8FFF769FEFFF7B7FE80BD59
:104040000820002080B50649C86600F033FC0C202B
:10405000002100F023FC00F0B7F8FFF757FE80BD09
:104060000820002080B50549C8660B20002100F01B
:1040700015FC00F0A9F8FFF749FE80BD08200020DC
:1040800010B5044600F016FC054804670A2000211C
:1040900000F004FC00F098F8FFF738FE10BDC046B1
:1040A0000820002080B50120002100F0F7FB00F07F
:1040B0008BF8FFF72BFEFFF779FE80BD80B500F08F
:1040C00001FC00F081F8FFF721FEFFF76FFE80BDD5
:1040D00010B50B494018022810D8C0B2FF24FF28A1
:1040E0000CD000F011F800F06FF806480078A042FC
:1040F00002D10020FFF728FAFFF708FE10BDC046E6
:10410000FFFFFF7F0820002010B504462D480178EE
:1041100005290BDD082912DD0A2924DC09292AD00A
:104120000A294CD1204600F027F93FE0022910DC93
:10413000002924D0012926D002293BD03FE00629BE
:1041400025D0072927D0082939D1204600F00CF9BD
:104150002CE0032923D0042925D005292FD120467E
:1041600000F0C6F810BD0B2925D00C2927D1204618
:1041700000F086F91AE0204600F0E8F816E0204644
:1041800000F072F812E0204600F080F80EE02046C1
:1041900000F0B6F80AE0204600F0C4F806E0204639
:1041A00000F0B7F802E0204600F08CF80146204607
:1041B00000F07CF910BD204600F0F4F810BD00219D
:1041C000417010BD0820002080B5264800780528E1
:1041D0000ADD082811DD0A2821DC092826D00A2852
:1041E0003CD100F093FA80BD02280FDC002820D0DB
:1041F000012821D0022830D030E006281FD007281F
:1042000020D008282AD100F07DFA80BD03281CD0D8
:1042100004281DD0052821D100F0D8F980BD0B2835
:1042200019D00C281AD100F0E5FA80BD00F03AFA56
:1042300080BD00F051F980BD00F06EF980BD00F046
:10424000DDF980BD00F00CFA80BD00F0E3F980BD1F
:1042500000F094F980BD00F099FA80BD00F00AFBEF
:1042600080BDC0460820002080B5022809D106483C
:104270004078052805D1FFF78DF80120002100F0D6
:104280000DFB052080BDC0460820002080B5022817
:1042900013D10B484178FF20012905DC002909D002
:1042A00001290AD1032005E0022902D0032901D007
:1042B00003E00420002100F0F1FA032080BDC04695
:1042C0000820002080B502280ED108484078012837
:1042D00003D0002804D1052000E00620002101E0E1
:1042E0000120022100F0DAFA022080BD082000201F
:1042F00080B5022803D10420002100F0CFFA80BD50
:1043000080B5022803D10420012100F0C7FA022061
:1043100080BD80B5022803D10120014600F0C4FA17
:10432000052080BD80B5084949780143090604D0BD
:10433000022806D100F0C6FA03E00920002100F0AF
:10434000ADFA062080BDC0460820002080B50228B6
:1043500006D0012806D10720002100F09FFA01E0D5
:1043600000F0B0FA002080BD80B5022801D100F035
:10437000A9FA062080BD000010B502280DD1084C16
:104380006078082804D0092807D1FCF7CDFC02E0AA
:10439000206FFCF7ABFC00202067092010BDC04651
:1043A00008200020F0B581B0054600F0DBFE044691
:1043B000002D1ED0022D37D0012D4CD12F4D687805
:1043C000A61E401C6870EF6E00F0EEFEC0003818AC
:1043D000C121890041580322120282580A43687899
:1043E000002A01D1B042ECDBA04234D30020687037
:1043F00031E0224D687800282BD0A41E401E687042
:10440000EE6E00F0D1FEC0003018C1218900415885
:10441000032212028058084300281CD16878002823
:1044200019D0A042EADB16E0144D6878611E88427C
:1044300007D1FCF7AFFB00212974012000F02EFA10
:1044400009E0A11E884208D1FCF7C0FB00202874B7
:1044500001E0FF346C7001B0F0BDC00708D1A8685E
:10446000E96800F0DBFB0428F5D300F059FDF2E722
:1044700000F020FA08200021E0E7C04608200020D4
:1044800080B502280DD108484078052805D00628B7
:1044900007D1FCF77FFB012000E00B20002100F09A
:1044A000FDF9062080BDC04608200020012808D064
:1044B00000280ED1074840780021002807D0411E6F
:1044C00005E004484078401C814200D30146014881
:1044D000417070470820002010B5A0B06C462046FF
:1044E00000F08AFE0621204600F03EFB084C607872
:1044F000002804D107480C3000F0CCFA6078052879
:1045000004D104480830002100F00EFB20B010BD9B
:1045100008200020F51F002010B596B001AC204601
:1045200000F0B4FE0421204600F01EFB1148407844
:10453000012804DC002810D001280AD017E0022846
:1045400010D0032813D10C49084608300E3100F072
:10455000EBFA01210020024607E007490A3100205A
:1045600000F0E2FA00200121042200F061FA16B006
:1045700010BDC04608200020F51F002010B590B0E7
:104580006C46204600F03EFF0321204600F0ECFA86
:104590000C484078022807D0012810D100200121C2
:1045A000042200F045FA0AE001210020024600F052
:1045B0003FFA0549084608300E3100F0B5FA10B050
:1045C00010BDC04608200020F51F002080B584B033
:1045D00000F066FA302001900648009068460121FC
:1045E000022200F025FA04480E30002100F09CFA67
:1045F00004B080BD312E302EF51F002010B590B0D4
:104600006C46204600F030FF0321204600F0ACFA53
:1046100010B010BD10B5A0B06C46204600F078FE7A
:104620000621204600F0A0FA0B484078052805D066
:1046300004280ED100200121042208E00749084681
:1046400008300E3100F070FA01210020024600F01F
:10465000EFF920B010BDC04608200020F51F002053
:1046600010B5A6B001AC204600F020FF072120467F
:1046700000F07AFA094C204600F00CFAA01C00F079
:1046800009FA07484178002906D10078072803D1A4
:104690000834204600F0FEF926B010BDF51F0020BA
:1046A0000820002070B584B000F0FAF9104C2146C3
:1046B00011316D465122284600F010F90126284696
:1046C0003146324600F0B4F90AA00322314600F028
:1046D000AFF90A48443062340922214602F03AFB1D
:1046E00007490A31002000F01FFA04B070BDC0462F
:1046F0000820002043686B3A200000008C1F002037
:10470000F51F002080B5FFF7ABFF80BDB0B5B6B098
:1047100001AC204600F0F0FE0A21204600F024FA09
:1047200018484078072807DC002812D0072827D12E
:1047300000200121042221E008280FD009281FD1E0
:10474000114808300024214600F0EEF901212046EE
:1047500013E00D480C3000F09DF911E00A490846BD
:1047600008300A3100F0E0F9002401250422204637
:10477000294600F05DF920462946224600F058F906
:1047800036B0B0BD08200020F51F0020B0B500F005
:1047900087F9124C657800F0E5FC801E854201D156
:1047A00012A006E0657800F0DDFC401E85420BD1CA
:1047B0000BA00121022200F03BF90B49084608300A
:1047C0000A3100F0B1F9B0BD6078C00702D100F045
:1047D000AFFBB0BD00F066FCB0BDC04608200020B5
:1047E00044656E7900000000F51F00204170707272
:1047F0006F766500B0B5A6B001AC204600F064FF4E
:104800000721204600F0B0F918484078042807DC5A
:10481000002812D0042827D100200121042221E001
:1048200005280FD006281FD1114808300024214642
:1048300000F07AF90121204613E00D480C3000F019
:1048400029F911E00A49084608300A3100F06CF9EC
:104850000024012504222046294600F0E9F82046DC
:104860002946224600F0E4F826B0B0BD082000201A
:10487000F51F002080B500F013F905A001210222E8
:1048800000F0D6F80020014600F04EF980BDC04689
:104890005549204552524F5200000000014A107005
:1048A0005170704708200020014A10705170704705
:1048B000082000200248017881704178C17070475B
:1048C000082000200448C1788278027041700121DC
:1048D00081700021C17070470820002070B50D461E
:1048E0000446512A15D1042620462946324602F0B4
:1048F0007FFB2E20E071A07160712020207120725A
:10490000204609304D352946324602F071FB002021
:10491000607370BDF0B587B005920493022B00D28E
:1049200083E002460A43002A41D001220392002775
:10493000002900DA0397CA17801801910E46014634
:104940005641564051400498401E02903C4608464D
:104950003043002831D00A2200250846069131460E
:104960002B4601F09DFF30320598C2557F1C6C41EB
:104970003A4604994A4006982243002A14D00A2253
:104980000023314601F08CFF0E463A4602994A4018
:10499000C917614011430122002900D10A46039939
:1049A0000A43002A0146D2D1059805703DE0302027
:1049B000059908700020487037E00198002801DB55
:1049C000059905E02D200599C85500207F1C44411C
:1049D0000022CA550120022F014600D31146002CA7
:1049E00000DB1046002C00D0014600291DD100201C
:1049F000C1437A1E06914C410346DDB205994E5DD6
:104A00008F5C4F558E54521E06994C415B1CDEB292
:104A1000012596422E4600D30646002C00DC0546B2
:104A2000002C00D02E46002EE7D107B0F0BD0000CC
:104A300010B50346022A06DC002A0ED0012A09D14D
:104A4000124C15340DE0032A09D0042A02D10F4C70
:104A5000543406E00D4C2A3403E00C4C01E00B4CBE
:104A60003F34002B09D001290AD000290DD103CBF6
:104A700015232246FFF74EFF10BD0020207010BD09
:104A8000152103A22046FEF795F910BD8C1F0020CA
:104A900025730000002801D000210170704700003C
:104AA0000F490020087048752A2288543F228854F4
:104AB000542288540B492E220A7048708A70C8709C
:104AC0000A7148718A71C8710A7248728A72C87212
:104AD0000A7348730A7448748A73C8737047C0466F
:104AE0008C1F0020F51F002010B50E4B2E241C70CB
:104AF00000225A709C70DA701C715A719C71DA71C4
:104B00001C725A729C72DA721C735A731C745A7437
:104B10009C73DA73002800D00270002900D00A705C
:104B200010BDC046F51F002010B50E4B00225A7074
:104B3000DA702E241C715A719C71DA711C725A72CF
:104B40009C72DA721C735A731C745A749C73DA73F5
:104B50001A709A70002800D00270002900D00A70E4
:104B600010BDC046F51F0020F0B581B0009104468D
:104B7000FFF796FF254F2E21397000207870B9700D
:104B8000F87039717871B971F87139727872B972D7
:104B9000F8723973787339747874B973F8731C4D7B
:104BA0006978002910D01520484323181948153B6F
:104BB00005D0152118A2FEF7FDF8687802E0002262
:104BC00002700846002139721526314641436318A8
:104BD00007D010482A3015210FA2FEF7EBF86878AD
:104BE00003E02A210B4A002353540099491E8842AE
:104BF0000ADA7043231815330648543006A23146AA
:104C0000FEF7D8F80020B87201B0F0BDF51F002003
:104C1000082000208C1F002025730000F0B581B013
:104C20000C46054601200027002D014600D03946DC
:104C3000002C00DB3846002C00D00146002917D19B
:104C4000002637460A2228462146334601F04CFE0C
:104C50000123092D1A4600D83246002C00D12346E4
:104C6000002C00D01A467F1C002A05460C46E9D1CC
:104C7000F8B201B0F0BD000070B586B00DA26B4671
:104C800030CA30C370CA70C312781A700022D4B20E
:104C90000319045D521C002C03D0D3B2102BF6D99B
:104CA00006E08800694609180422184602F0A0F9B7
:104CB00006B070BD20690000204B6900204D6900DE
:104CC000204769002054690000000000F0B58BB057
:104CD00015460F4601460D2F53D805A815220491FD
:104CE00002F038F8FF20FD21002D00D10846C4193C
:104CF00003263846314601F0E3FC002900D00E4679
:104D0000E0B20390F81E0190781E029000210A463E
:104D10000B460F46002D0DD158B2029CA04201D186
:104D20005B1C07E0019CA04204D12E20049C60542F
:104D30007F1C00262C4658B205A9085C79B2049D58
:104D400068543038511C0A2800D3114648B27A1CE6
:104D50005B1CF5B2A8420BD158B2039DA84207DAFA
:104D600050B22C21049A1154BF1C0022032601E0EA
:104D700017460A46254679B21429CBDB0020049950
:104D800008750BB0F0BD000070B51C460125022A65
:104D900006DC002A0ED0012A09D10F4E15360DE08F
:104DA000032A09D0042A02D10B4E543606E00A4EDB
:104DB0002A3603E0084E01E0074E3F3615233246FF
:104DC000FFF7A8FD304621462A46FFF77FFF002166
:104DD0003046FFF751FF70BD8C1F0020F0B585B045
:104DE00014460E4607460220C04302900420049059
:104DF000032503930C2B09D80398401E032101F0CF
:104E000063FC0490C0B2451E02280FD30194002415
:104E10007D20C20000233846314601F041FD07469F
:104E20000E46641CE0B2A842F2DB019C022C06DCB8
:104E3000002C0ED0012C09D1134C15340DE0032C9D
:104E400009D0042C02D1104C543406E00E4C2A3404
:104E500003E00D4C01E00C4C3F341523384631463D
:104E60002246FFF757FD0299694303980818C1B21B
:104E700000222046FFF72AFF0498C1B22046FFF720
:104E8000FBFE05B0F0BDC0468C1F0020F0B583B01E
:104E90000123002700281C4600D03C46002900DBE7
:104EA0003B46002900D01C46002C2BD10292002545
:104EB0002F460090064601910C460A2230462146B4
:104EC0002B4601F011FD0123092E1A4600D82A466F
:104ED000002C00D12346002C00D01A467F1C002A4B
:104EE00006460C46E9D1FBB2042B09D30B48007CE3
:104EF0000028029A0199009804D1FFF76FFF04E09F
:104F000000AA07CAFBB2FFF73FFFFAB20120002157
:104F1000032A00D8084603B0F0BDC0460820002090
:104F20000248017C01224A40027470470820002098
:104F3000F0B589B04E4EF46E00F036F9C000029420
:104F40002218032000021558C12189005258B5606B
:104F5000F26001230027002D1D4600D03D46002AA7
:104F600000DB3B46002A00D01D46002D31D1454ACA
:104F7000029B9A5C7378019300273D46EBB2DB00FD
:104F8000029CE3185E581C5834437B1C002C00D153
:104F90003B466D1CECB294421F46EFD95800801C72
:104FA000C0B2001F01998142314E21D19000029977
:104FB00008180D218901435803AC152534A2204659
:104FC0002946FDF7F7FE2B4815302BA2294623462C
:104FD00013E028481530152127A228A3FDF7EAFE83
:104FE000B068F1680022101A8A41B060F26006E0F1
:104FF00020481530152120A223A3FDF7DBFEB06861
:10500000F1680322FFF742FF012815D1244800214F
:105010004170C1702E22027141718271C1710272A0
:1050200041728272C172027341730274417482735D
:10503000C1730170801C14E019482E2101700022F8
:1050400042708170C270017142718171C2710172CE
:1050500042728172C272017342730174427481732D
:105060000F30002101700E480172817209B0F0BD4D
:10507000082000208C1F002025730000496E7075E9
:10508000743A0000610300004F75747075743A0043
:105090004368616E67653A205B25755D000000001E
:1050A000F51F0020F0B585B02748C56E044600F016
:1050B0007BF801462846FCF78FF82746113739461A
:1050C000FBF76EF801AD042628463946324601F05A
:1050D0008FFF202028721D48029028460930214663
:1050E0005E31324601F084FF00246C73184E304666
:1050F0001530152717A239462B46FDF75BFE3046C3
:105100003F3015A3394613A2FDF754FE44360E492D
:1051100062310922304601F01DFE11484470C4700E
:105120002E21017144718171C4714472C472017382
:105130004473017444748173C47304708470047282
:10514000847205B0F0BDC04608200020202E2E2E0F
:105150008C1F00202573000043686B3A200000007C
:10516000F51F002070B50E48C06E0E49415C00234B
:105170001A46D4B2E4000419C125AD0065590326CE
:105180003602A6592E435C1C002E00D11C46521C30
:10519000D3B28B422346ECD96000801CC0B270BDF4
:1051A0000820002061030000F0B5114AD06E1149BB
:1051B0004118527852080024D2B223462546EEB256
:1051C000964212D8E4000419C126B600A659032756
:1051D0003F02E45934436E1C002C00D12E465B1C68
:1051E000DCB20D78AC423546E9D9FF34E0B2F0BD0F
:1051F000082000206103000070B5044609307521C5
:1052000001F0A2FD1D4979440922204601F0A2FDCA
:105210002046153010A1112201F09CFD20462A30B5
:1052200012A10F252A4601F095FD20463F30144972
:1052300079440D26324601F08DFD20465430114947
:105240007944324601F086FD69340F49794420469D
:105250002A4601F07FFD70BD494F544120697320FB
:105260006E6F74206C696B65000000006F74686578
:10527000722063727970746F732100002223000022
:1052800004230000042300000823000010B5044696
:105290001130432101F058FD15A11122204601F0E3
:1052A00059FD002020777321E1766521A1767822CF
:1052B000627621766421E1756E21A17549216175BF
:1052C0002F2160542E20742121542D20752121542A
:1052D0002C206F2121542B20622121542A2041218E
:1052E00021543F3407A10922204601F033FD10BDAF
:1052F0002057656C636F6D6520746F20494F544172
:1053000000000000457869742041707000000000C2
:10531000F0B581B00446E01D772101F015FD344958
:10532000794407262046324601F014FD0020009003
:10533000FEF746F80346A01D10272CA539462A463D
:10534000FDF738FD204615302A497944324601F0F0
:1053500001FD0120FEF734F8034620461B30394694
:105360002A46FDF727FD20462A3023497944324654
:1053700001F0F0FC0220FEF723F80346204630300F
:1053800039462A46FDF716FD20463F301B49794431
:10539000324601F0DFFC0320FEF712F803462046F8
:1053A000453039462A46FDF705FD2046543014495C
:1053B0007944324601F0CEFC0420FEF701F80346A2
:1053C00020465A3039462A46FDF7F4FC6C206B2102
:1053D0002154632060546A206121215469204221B4
:1053E00021546D200099215401B0F0BD25750000B5
:1053F000D8210000B52100009A2100007F21000083
:1054000064210000B0B504460830372101F09CFC4F
:105410000025E5716E20A0716F20607169202071F8
:105420007320E0707220A07065206070562020709C
:105430002046153009A10A2201F08CFC2D206B2199
:1054400021542C20632121542B20612121542A2016
:10545000422121542E202554B0BDC0464D6F7265A7
:1054600020496E666F000000B0B504460D30322151
:1054700001F06AFC0A4979440D2520462A4601F0CC
:1054800069FC20461530074979442A4601F062FC40
:105490002A34054979440F22204601F05BFCB0BD57
:1054A000BE200000BC200000C0200000F0B581B08C
:1054B0009321009001F048FC0E4D11350624002781
:1054C0000098C619E2B23046294601F091FD20202D
:1054D000B07103207E2F00D02046C2B20446F01DDA
:1054E000A91D01F085FD0C351537932FE8D101B0CA
:1054F000F0BDC04608200020F0B581B00446D2219E
:1055000001F022FC5F4E306F002800D1B7E06849FF
:1055100079440922204601F01DFC204615305AA18D
:10552000142201F017FC20462A305CA10D2201F064
:1055300011FC20463F305F49794407273A4601F085
:1055400009FC306F0178427812020A438178C078F2
:10555000000208430304134320464530102553A29C
:105560002946FDF727FC20465430534979443A46F2
:1055700001F0F0FB306F017A427A12020A43817A1D
:10558000C07A000208430304134320465A302946D8
:1055900046A246A6FDF70EFC2046693047497944ED
:1055A0003A4601F0D7FB3748006F017C427C12027B
:1055B0000A43817CC07C0002084303041343204655
:1055C0006F3029463246FDF7F5FB20467E303C49D8
:1055D00079443A4601F0BEFB2A48006F017E427EC4
:1055E00012020A43817EC07E000208430304134373
:1055F0002046843029463246FDF7DCFB20469330B6
:10560000304979443A4601F0A5FB1E48006F20213D
:10561000415C2122825C12020A432221415C232345
:10562000C05C000208430304134320469930294616
:105630003246FDF7BFFBAF2100206054AE2265214A
:10564000A154AD227623A354AC226F23A354AB22E2
:105650007223A354AA227023A354A922A354A822DC
:105660004123A354C0227923A354BF226E23A35401
:10567000BE22A154BD2144226254C121605401B014
:10568000F0BDC04608200020496E697469616C69EC
:105690007A696E67204C656467657200536565645E
:1056A00020496E6465786573000000002575000070
:1056B00018200000C01F0000931F0000681F00009A
:1056C0003D1F0000121F0000F0B581B004460830F5
:1056D0008B2101F039FB0026E6714720A0714E278F
:1056E000677149202071E7705220A07041206070DE
:1056F000572020702046153015A10E252A4601F0AE
:1057000029FB20462A3016A10F2201F023FB204658
:105710003F3017A10A2201F01DFB2046543017A18B
:105720002A4601F017FB6C2026546B20732121546C
:105730006A20652121546920592121547F206F213D
:1057400021547E2027548020265401B0F0BDC0464D
:105750004368616E6765207478206861730000009B
:105760006C6F77657220696478207468616E0000E0
:10577000657870656374656421000000417265207E
:10578000796F7520737572653F0000000249002033
:1057900008600249086070478020002084200020B3
:1057A00010B507484F210170002444700121817019
:1057B0000221C1700421FDF7F3FE204610BDC04652
:1057C000581C002070B582B06D464F262E70002404
:1057D0006C700220A8700320E8702C710521284607
:1057E000FDF7DEFE2E706C700120A870E8700421B9
:1057F0002846FDF7D5FE204602B070BD10B582B038
:1058000001A84F2101700024447001218170022100
:10581000C1700421FDF7C4FE204602B010BD000097
:10582000B0B582B00E48002404600E48046068469B
:105830004F2505704470052585700425C570012528
:1058400005714171032A02D8D000074CC440684654
:105850008471C3710821FDF7A3FE002002B0B0BD22
:1058600080200020842000200104030210B582B0B3
:1058700068464F2202700024447005228270042280
:10588000C2700122027141718471C4710821FDF757
:1058900087FE204602B010BDB0B582B00D46684606
:1058A000502101700024447003218170C570402193
:1058B000017144710621FDF773FE8020054201D17C
:1058C000074800E0054801687F2215400122AA40F0
:1058D0000A430260204602B0B0BDC04680200020CE
:1058E0008420002070B582B00D46684650210170BA
:1058F0000024447003218170C570802606714471B4
:105900000621FDF74DFE354201D1074800E005486C
:1059100001687F2215400122AA4091430160204680
:1059200002B070BD80200020842000208020014231
:1059300001D0064800E0044800687F22114001229F
:105940008A400240D0B2704784200020802000208E
:1059500010B582B068464F220270002444700222C3
:1059600082700322C27001710521FDF719FE2046E5
:1059700002B010BDB0B582B01C4615466846502234
:105980000270E21C130A43708270C1702021017101
:1059900044710621FDF704FE28462146FDF700FE6E
:1059A000002002B0B0BD10B582B06846502303702D
:1059B0000024447003238370C1703021017142714F
:1059C0000621FDF7EDFD204602B010BD70B515466D
:1059D0000E4604460220002C10D0452081002046AF
:1059E00001F0B2F9002E01D0F0202650DC20012178
:1059F000215425702046FFF7C9FE0020C0B270BDBB
:105A0000B0B50446DC20012121540025E80020180F
:105A1000F4214058002806D04068FDF7DBFB024621
:105A20002179204690476D1C032DEFD12046FFF7CA
:105A3000E5FE2046FFF7B4FE0020B0BD0223002A99
:105A400006D00023022803D8C0000818F4214250D1
:105A5000D8B2704780B5FFF7B5FE002080BD70B5A5
:105A60000C46054600262846314600F06FF900280E
:105A70000AD0F0002818F42140580068FDF7AAFB6E
:105A80000246284621469047761C032EEBD1002083
:105A900070BD70B50C46054600262846314600F01C
:105AA00055F900280AD0F0002818F4214058406821
:105AB000FDF790FB0246284621469047761C032EB0
:105AC000EBD1002070BDB0B504462546E835284628
:105AD00000F089FBD42001212150EE20205AD8214A
